{
    "contractName": "Detangled",
    "abi": [
        {
            "inputs": [],
            "stateMutability": "nonpayable",
            "type": "constructor"
        },
        {
            "anonymous": false,
            "inputs": [
                {
                    "indexed": true,
                    "internalType": "address",
                    "name": "account",
                    "type": "address"
                },
                {
                    "indexed": true,
                    "internalType": "address",
                    "name": "operator",
                    "type": "address"
                },
                {
                    "indexed": false,
                    "internalType": "bool",
                    "name": "approved",
                    "type": "bool"
                }
            ],
            "name": "ApprovalForAll",
            "type": "event"
        },
        {
            "anonymous": false,
            "inputs": [
                {
                    "indexed": false,
                    "internalType": "address",
                    "name": "account",
                    "type": "address"
                }
            ],
            "name": "Paused",
            "type": "event"
        },
        {
            "anonymous": false,
            "inputs": [
                {
                    "indexed": true,
                    "internalType": "bytes32",
                    "name": "role",
                    "type": "bytes32"
                },
                {
                    "indexed": true,
                    "internalType": "bytes32",
                    "name": "previousAdminRole",
                    "type": "bytes32"
                },
                {
                    "indexed": true,
                    "internalType": "bytes32",
                    "name": "newAdminRole",
                    "type": "bytes32"
                }
            ],
            "name": "RoleAdminChanged",
            "type": "event"
        },
        {
            "anonymous": false,
            "inputs": [
                {
                    "indexed": true,
                    "internalType": "bytes32",
                    "name": "role",
                    "type": "bytes32"
                },
                {
                    "indexed": true,
                    "internalType": "address",
                    "name": "account",
                    "type": "address"
                },
                {
                    "indexed": true,
                    "internalType": "address",
                    "name": "sender",
                    "type": "address"
                }
            ],
            "name": "RoleGranted",
            "type": "event"
        },
        {
            "anonymous": false,
            "inputs": [
                {
                    "indexed": true,
                    "internalType": "bytes32",
                    "name": "role",
                    "type": "bytes32"
                },
                {
                    "indexed": true,
                    "internalType": "address",
                    "name": "account",
                    "type": "address"
                },
                {
                    "indexed": true,
                    "internalType": "address",
                    "name": "sender",
                    "type": "address"
                }
            ],
            "name": "RoleRevoked",
            "type": "event"
        },
        {
            "anonymous": false,
            "inputs": [
                {
                    "indexed": true,
                    "internalType": "address",
                    "name": "operator",
                    "type": "address"
                },
                {
                    "indexed": true,
                    "internalType": "address",
                    "name": "from",
                    "type": "address"
                },
                {
                    "indexed": true,
                    "internalType": "address",
                    "name": "to",
                    "type": "address"
                },
                {
                    "indexed": false,
                    "internalType": "uint256[]",
                    "name": "ids",
                    "type": "uint256[]"
                },
                {
                    "indexed": false,
                    "internalType": "uint256[]",
                    "name": "values",
                    "type": "uint256[]"
                }
            ],
            "name": "TransferBatch",
            "type": "event"
        },
        {
            "anonymous": false,
            "inputs": [
                {
                    "indexed": true,
                    "internalType": "address",
                    "name": "operator",
                    "type": "address"
                },
                {
                    "indexed": true,
                    "internalType": "address",
                    "name": "from",
                    "type": "address"
                },
                {
                    "indexed": true,
                    "internalType": "address",
                    "name": "to",
                    "type": "address"
                },
                {
                    "indexed": false,
                    "internalType": "uint256",
                    "name": "id",
                    "type": "uint256"
                },
                {
                    "indexed": false,
                    "internalType": "uint256",
                    "name": "value",
                    "type": "uint256"
                }
            ],
            "name": "TransferSingle",
            "type": "event"
        },
        {
            "anonymous": false,
            "inputs": [
                {
                    "indexed": false,
                    "internalType": "string",
                    "name": "value",
                    "type": "string"
                },
                {
                    "indexed": true,
                    "internalType": "uint256",
                    "name": "id",
                    "type": "uint256"
                }
            ],
            "name": "URI",
            "type": "event"
        },
        {
            "anonymous": false,
            "inputs": [
                {
                    "indexed": false,
                    "internalType": "address",
                    "name": "account",
                    "type": "address"
                }
            ],
            "name": "Unpaused",
            "type": "event"
        },
        {
            "inputs": [],
            "name": "BETA_TESTER",
            "outputs": [
                {
                    "internalType": "uint256",
                    "name": "",
                    "type": "uint256"
                }
            ],
            "stateMutability": "view",
            "type": "function"
        },
        {
            "inputs": [],
            "name": "DEFAULT_ADMIN_ROLE",
            "outputs": [
                {
                    "internalType": "bytes32",
                    "name": "",
                    "type": "bytes32"
                }
            ],
            "stateMutability": "view",
            "type": "function"
        },
        {
            "inputs": [],
            "name": "MINTER_ROLE",
            "outputs": [
                {
                    "internalType": "bytes32",
                    "name": "",
                    "type": "bytes32"
                }
            ],
            "stateMutability": "view",
            "type": "function"
        },
        {
            "inputs": [],
            "name": "PAUSER_ROLE",
            "outputs": [
                {
                    "internalType": "bytes32",
                    "name": "",
                    "type": "bytes32"
                }
            ],
            "stateMutability": "view",
            "type": "function"
        },
        {
            "inputs": [
                {
                    "internalType": "address",
                    "name": "account",
                    "type": "address"
                },
                {
                    "internalType": "uint256",
                    "name": "id",
                    "type": "uint256"
                }
            ],
            "name": "balanceOf",
            "outputs": [
                {
                    "internalType": "uint256",
                    "name": "",
                    "type": "uint256"
                }
            ],
            "stateMutability": "view",
            "type": "function"
        },
        {
            "inputs": [
                {
                    "internalType": "address[]",
                    "name": "accounts",
                    "type": "address[]"
                },
                {
                    "internalType": "uint256[]",
                    "name": "ids",
                    "type": "uint256[]"
                }
            ],
            "name": "balanceOfBatch",
            "outputs": [
                {
                    "internalType": "uint256[]",
                    "name": "",
                    "type": "uint256[]"
                }
            ],
            "stateMutability": "view",
            "type": "function"
        },
        {
            "inputs": [
                {
                    "internalType": "address",
                    "name": "account",
                    "type": "address"
                },
                {
                    "internalType": "uint256",
                    "name": "id",
                    "type": "uint256"
                },
                {
                    "internalType": "uint256",
                    "name": "value",
                    "type": "uint256"
                }
            ],
            "name": "burn",
            "outputs": [],
            "stateMutability": "nonpayable",
            "type": "function"
        },
        {
            "inputs": [
                {
                    "internalType": "address",
                    "name": "account",
                    "type": "address"
                },
                {
                    "internalType": "uint256[]",
                    "name": "ids",
                    "type": "uint256[]"
                },
                {
                    "internalType": "uint256[]",
                    "name": "values",
                    "type": "uint256[]"
                }
            ],
            "name": "burnBatch",
            "outputs": [],
            "stateMutability": "nonpayable",
            "type": "function"
        },
        {
            "inputs": [
                {
                    "internalType": "bytes32",
                    "name": "role",
                    "type": "bytes32"
                }
            ],
            "name": "getRoleAdmin",
            "outputs": [
                {
                    "internalType": "bytes32",
                    "name": "",
                    "type": "bytes32"
                }
            ],
            "stateMutability": "view",
            "type": "function"
        },
        {
            "inputs": [
                {
                    "internalType": "bytes32",
                    "name": "role",
                    "type": "bytes32"
                },
                {
                    "internalType": "uint256",
                    "name": "index",
                    "type": "uint256"
                }
            ],
            "name": "getRoleMember",
            "outputs": [
                {
                    "internalType": "address",
                    "name": "",
                    "type": "address"
                }
            ],
            "stateMutability": "view",
            "type": "function"
        },
        {
            "inputs": [
                {
                    "internalType": "bytes32",
                    "name": "role",
                    "type": "bytes32"
                }
            ],
            "name": "getRoleMemberCount",
            "outputs": [
                {
                    "internalType": "uint256",
                    "name": "",
                    "type": "uint256"
                }
            ],
            "stateMutability": "view",
            "type": "function"
        },
        {
            "inputs": [
                {
                    "internalType": "bytes32",
                    "name": "role",
                    "type": "bytes32"
                },
                {
                    "internalType": "address",
                    "name": "account",
                    "type": "address"
                }
            ],
            "name": "grantRole",
            "outputs": [],
            "stateMutability": "nonpayable",
            "type": "function"
        },
        {
            "inputs": [
                {
                    "internalType": "bytes32",
                    "name": "role",
                    "type": "bytes32"
                },
                {
                    "internalType": "address",
                    "name": "account",
                    "type": "address"
                }
            ],
            "name": "hasRole",
            "outputs": [
                {
                    "internalType": "bool",
                    "name": "",
                    "type": "bool"
                }
            ],
            "stateMutability": "view",
            "type": "function"
        },
        {
            "inputs": [
                {
                    "internalType": "address",
                    "name": "account",
                    "type": "address"
                },
                {
                    "internalType": "address",
                    "name": "operator",
                    "type": "address"
                }
            ],
            "name": "isApprovedForAll",
            "outputs": [
                {
                    "internalType": "bool",
                    "name": "",
                    "type": "bool"
                }
            ],
            "stateMutability": "view",
            "type": "function"
        },
        {
            "inputs": [
                {
                    "internalType": "address",
                    "name": "to",
                    "type": "address"
                },
                {
                    "internalType": "uint256",
                    "name": "id",
                    "type": "uint256"
                },
                {
                    "internalType": "uint256",
                    "name": "amount",
                    "type": "uint256"
                },
                {
                    "internalType": "bytes",
                    "name": "data",
                    "type": "bytes"
                }
            ],
            "name": "mint",
            "outputs": [],
            "stateMutability": "nonpayable",
            "type": "function"
        },
        {
            "inputs": [
                {
                    "internalType": "address",
                    "name": "to",
                    "type": "address"
                },
                {
                    "internalType": "uint256[]",
                    "name": "ids",
                    "type": "uint256[]"
                },
                {
                    "internalType": "uint256[]",
                    "name": "amounts",
                    "type": "uint256[]"
                },
                {
                    "internalType": "bytes",
                    "name": "data",
                    "type": "bytes"
                }
            ],
            "name": "mintBatch",
            "outputs": [],
            "stateMutability": "nonpayable",
            "type": "function"
        },
        {
            "inputs": [],
            "name": "pause",
            "outputs": [],
            "stateMutability": "nonpayable",
            "type": "function"
        },
        {
            "inputs": [],
            "name": "paused",
            "outputs": [
                {
                    "internalType": "bool",
                    "name": "",
                    "type": "bool"
                }
            ],
            "stateMutability": "view",
            "type": "function"
        },
        {
            "inputs": [
                {
                    "internalType": "bytes32",
                    "name": "role",
                    "type": "bytes32"
                },
                {
                    "internalType": "address",
                    "name": "account",
                    "type": "address"
                }
            ],
            "name": "renounceRole",
            "outputs": [],
            "stateMutability": "nonpayable",
            "type": "function"
        },
        {
            "inputs": [
                {
                    "internalType": "bytes32",
                    "name": "role",
                    "type": "bytes32"
                },
                {
                    "internalType": "address",
                    "name": "account",
                    "type": "address"
                }
            ],
            "name": "revokeRole",
            "outputs": [],
            "stateMutability": "nonpayable",
            "type": "function"
        },
        {
            "inputs": [
                {
                    "internalType": "address",
                    "name": "from",
                    "type": "address"
                },
                {
                    "internalType": "address",
                    "name": "to",
                    "type": "address"
                },
                {
                    "internalType": "uint256[]",
                    "name": "ids",
                    "type": "uint256[]"
                },
                {
                    "internalType": "uint256[]",
                    "name": "amounts",
                    "type": "uint256[]"
                },
                {
                    "internalType": "bytes",
                    "name": "data",
                    "type": "bytes"
                }
            ],
            "name": "safeBatchTransferFrom",
            "outputs": [],
            "stateMutability": "nonpayable",
            "type": "function"
        },
        {
            "inputs": [
                {
                    "internalType": "address",
                    "name": "from",
                    "type": "address"
                },
                {
                    "internalType": "address",
                    "name": "to",
                    "type": "address"
                },
                {
                    "internalType": "uint256",
                    "name": "id",
                    "type": "uint256"
                },
                {
                    "internalType": "uint256",
                    "name": "amount",
                    "type": "uint256"
                },
                {
                    "internalType": "bytes",
                    "name": "data",
                    "type": "bytes"
                }
            ],
            "name": "safeTransferFrom",
            "outputs": [],
            "stateMutability": "nonpayable",
            "type": "function"
        },
        {
            "inputs": [
                {
                    "internalType": "address",
                    "name": "operator",
                    "type": "address"
                },
                {
                    "internalType": "bool",
                    "name": "approved",
                    "type": "bool"
                }
            ],
            "name": "setApprovalForAll",
            "outputs": [],
            "stateMutability": "nonpayable",
            "type": "function"
        },
        {
            "inputs": [
                {
                    "internalType": "bytes4",
                    "name": "interfaceId",
                    "type": "bytes4"
                }
            ],
            "name": "supportsInterface",
            "outputs": [
                {
                    "internalType": "bool",
                    "name": "",
                    "type": "bool"
                }
            ],
            "stateMutability": "view",
            "type": "function"
        },
        {
            "inputs": [],
            "name": "unpause",
            "outputs": [],
            "stateMutability": "nonpayable",
            "type": "function"
        },
        {
            "inputs": [
                {
                    "internalType": "uint256",
                    "name": "",
                    "type": "uint256"
                }
            ],
            "name": "uri",
            "outputs": [
                {
                    "internalType": "string",
                    "name": "",
                    "type": "string"
                }
            ],
            "stateMutability": "view",
            "type": "function"
        }
    ],
    "bytecode": "60806040523480156200001157600080fd5b506040518060600160405280602d81526020016200356e602d9139806200003881620000e2565b506005805460ff1916905562000059600062000053620000fb565b62000100565b620000887f9f2df0fed2c77648de5860a4cc508cd0818c85b8b8a1ab4ceeef8d981c8956a662000053620000fb565b620000b77f65d7a28e3265b37a6474929f336521b332c1681b933f6cb9f3376673440d862a62000053620000fb565b50620000dc33600180604051806020016040528060008152506200010c60201b60201c565b6200097c565b8051620000f7906004906020840190620005a3565b5050565b335b90565b620000f782826200021e565b6001600160a01b0384166200013e5760405162461bcd60e51b8152600401620001359062000815565b60405180910390fd5b60006200014a620000fb565b905062000171816000876200015f8862000261565b6200016a8862000261565b87620002bb565b60008481526002602090815260408083206001600160a01b038916845290915281208054859290620001a590849062000864565b92505081905550846001600160a01b031660006001600160a01b0316826001600160a01b03167fc3d58168c5ae7397731d063d5bbf3d657854427343f4c083240f7aacaa2d0f628787604051620001fe92919062000856565b60405180910390a46200021781600087878787620002de565b5050505050565b6200023582826200041560201b620009ef1760201c565b60008281526001602090815260409091206200025c91839062000a746200049f821b17901c565b505050565b60408051600180825281830190925260609160009190602080830190803683370190505090508281600081518110620002aa57634e487b7160e01b600052603260045260246000fd5b602090810291909101015292915050565b620002d6868686868686620004bf60201b62000a891760201c565b505050505050565b620002fd846001600160a01b03166200050460201b62000ac41760201c565b15620002d65760405163f23a6e6160e01b81526001600160a01b0385169063f23a6e6190620003399089908990889088908890600401620006c8565b602060405180830381600087803b1580156200035457600080fd5b505af192505050801562000387575060408051601f3d908101601f19168201909252620003849181019062000649565b60015b620003d95762000396620008cc565b80620003a35750620003bf565b8060405162461bcd60e51b81526004016200013591906200070f565b60405162461bcd60e51b8152600401620001359062000724565b6001600160e01b0319811663f23a6e6160e01b146200040c5760405162461bcd60e51b8152600401620001359062000781565b50505050505050565b6200042182826200050a565b620000f7576000828152602081815260408083206001600160a01b03851684529091529020805460ff191660011790556200045b620000fb565b6001600160a01b0316816001600160a01b0316837f2f8788117e7eff1d82e926ec794901d17c78024a50270940304540a733656f0d60405160405180910390a45050565b6000620004b6836001600160a01b03841662000533565b90505b92915050565b620004da868686868686620002d660201b62000abc1760201c565b620004e462000582565b15620002d65760405162461bcd60e51b81526004016200013590620007c9565b3b151590565b6000918252602082815260408084206001600160a01b0393909316845291905290205460ff1690565b60006200054183836200058b565b6200057957508154600181810184556000848152602080822090930184905584548482528286019093526040902091909155620004b9565b506000620004b9565b60055460ff1690565b60009081526001919091016020526040902054151590565b828054620005b19062000889565b90600052602060002090601f016020900481019282620005d5576000855562000620565b82601f10620005f057805160ff191683800117855562000620565b8280016001018555821562000620579182015b828111156200062057825182559160200191906001019062000603565b506200062e92915062000632565b5090565b5b808211156200062e576000815560010162000633565b6000602082840312156200065b578081fd5b81516001600160e01b03198116811462000673578182fd5b9392505050565b60008151808452815b81811015620006a15760208185018101518683018201520162000683565b81811115620006b35782602083870101525b50601f01601f19169290920160200192915050565b6001600160a01b03868116825285166020820152604081018490526060810183905260a06080820181905260009062000704908301846200067a565b979650505050505050565b600060208252620004b660208301846200067a565b60208082526034908201527f455243313135353a207472616e7366657220746f206e6f6e204552433131353560408201527f526563656976657220696d706c656d656e746572000000000000000000000000606082015260800190565b60208082526028908201527f455243313135353a204552433131353552656365697665722072656a656374656040820152676420746f6b656e7360c01b606082015260800190565b6020808252602c908201527f455243313135355061757361626c653a20746f6b656e207472616e736665722060408201526b1dda1a5b19481c185d5cd95960a21b606082015260800190565b60208082526021908201527f455243313135353a206d696e7420746f20746865207a65726f206164647265736040820152607360f81b606082015260800190565b918252602082015260400190565b600082198211156200088457634e487b7160e01b81526011600452602481fd5b500190565b6002810460018216806200089e57607f821691505b60208210811415620008c057634e487b7160e01b600052602260045260246000fd5b50919050565b60e01c90565b600060443d1015620008de57620000fd565b600481823e6308c379a0620008f48251620008c6565b146200090057620000fd565b6040513d600319016004823e80513d6001600160401b038083116024840183101715620009315750505050620000fd565b828401925082519150808211156200094d5750505050620000fd565b503d830160208284010111156200096757505050620000fd565b601f01601f1916810160200160405291505090565b612be2806200098c6000396000f3fe608060405234801561001057600080fd5b506004361061018d5760003560e01c80638456cb59116100de578063d539139311610097578063e63ab1e911610071578063e63ab1e91461033e578063e985e9c514610346578063f242432a14610359578063f5298aca1461036c5761018d565b8063d53913931461031b578063d547741f14610323578063d9cf786c146103365761018d565b80638456cb59146102b25780639010d07c146102ba57806391d14854146102da578063a217fddf146102ed578063a22cb465146102f5578063ca15c873146103085761018d565b80632f2ff15d1161014b5780634e1273f4116101255780634e1273f4146102645780635c975abb146102845780636b20c4541461028c578063731133e91461029f5761018d565b80632f2ff15d1461023657806336568abe146102495780633f4ba83a1461025c5761018d565b8062fdd58e1461019257806301ffc9a7146101bb5780630e89341c146101db5780631f7fdffa146101fb578063248a9ca3146102105780632eb2c2d614610223575b600080fd5b6101a56101a0366004611f8e565b61037f565b6040516101b2919061236b565b60405180910390f35b6101ce6101c9366004612155565b6103db565b6040516101b29190612360565b6101ee6101e93660046120fa565b6103ee565b6040516101b29190612374565b61020e610209366004611ebf565b610482565b005b6101a561021e3660046120fa565b6104dc565b61020e610231366004611d45565b6104f1565b61020e610244366004612112565b61054f565b61020e610257366004612112565b610578565b61020e6105be565b61027761027236600461203c565b610610565b6040516101b2919061231f565b6101ce610730565b61020e61029a366004611e4e565b61073a565b61020e6102ad366004611fe9565b61078f565b61020e6107e3565b6102cd6102c8366004612134565b610833565b6040516101b29190612268565b6101ce6102e8366004612112565b610852565b6101a561087b565b61020e610303366004611f54565b610880565b6101a56103163660046120fa565b610892565b6101a56108a9565b61020e610331366004612112565b6108cd565b6101a56108ec565b6101a56108f1565b6101ce610354366004611d13565b610915565b61020e610367366004611deb565b610943565b61020e61037a366004611fb7565b61099a565b60006001600160a01b0383166103b05760405162461bcd60e51b81526004016103a790612486565b60405180910390fd5b5060008181526002602090815260408083206001600160a01b03861684529091529020545b92915050565b60006103e682610aca565b90505b919050565b6060600480546103fd90612a66565b80601f016020809104026020016040519081016040528092919081815260200182805461042990612a66565b80156104765780601f1061044b57610100808354040283529160200191610476565b820191906000526020600020905b81548152906001019060200180831161045957829003601f168201915b50505050509050919050565b6104ae7f9f2df0fed2c77648de5860a4cc508cd0818c85b8b8a1ab4ceeef8d981c8956a66102e8610b0a565b6104ca5760405162461bcd60e51b81526004016103a7906126ae565b6104d684848484610b0e565b50505050565b60009081526020819052604090206001015490565b6104f9610b0a565b6001600160a01b0316856001600160a01b0316148061051f575061051f85610354610b0a565b61053b5760405162461bcd60e51b81526004016103a790612619565b6105488585858585610c90565b5050505050565b610558826104dc565b61056981610564610b0a565b610e5c565b6105738383610ec0565b505050565b610580610b0a565b6001600160a01b0316816001600160a01b0316146105b05760405162461bcd60e51b81526004016103a79061292a565b6105ba8282610ee2565b5050565b6105ea7f65d7a28e3265b37a6474929f336521b332c1681b933f6cb9f3376673440d862a6102e8610b0a565b6106065760405162461bcd60e51b81526004016103a790612755565b61060e610f04565b565b606081518351146106335760405162461bcd60e51b81526004016103a790612858565b6000835167ffffffffffffffff81111561065d57634e487b7160e01b600052604160045260246000fd5b604051908082528060200260200182016040528015610686578160200160208202803683370190505b50905060005b8451811015610728576106ed8582815181106106b857634e487b7160e01b600052603260045260246000fd5b60200260200101518583815181106106e057634e487b7160e01b600052603260045260246000fd5b602002602001015161037f565b82828151811061070d57634e487b7160e01b600052603260045260246000fd5b602090810291909101015261072181612aa1565b905061068c565b509392505050565b60055460ff165b90565b610742610b0a565b6001600160a01b0316836001600160a01b03161480610768575061076883610354610b0a565b6107845760405162461bcd60e51b81526004016103a790612561565b610573838383610f72565b6107bb7f9f2df0fed2c77648de5860a4cc508cd0818c85b8b8a1ab4ceeef8d981c8956a66102e8610b0a565b6107d75760405162461bcd60e51b81526004016103a7906126ae565b6104d684848484611126565b61080f7f65d7a28e3265b37a6474929f336521b332c1681b933f6cb9f3376673440d862a6102e8610b0a565b61082b5760405162461bcd60e51b81526004016103a7906127b2565b61060e611217565b600082815260016020526040812061084b9083611272565b9392505050565b6000918252602082815260408084206001600160a01b0393909316845291905290205460ff1690565b600081565b6105ba61088b610b0a565b838361127e565b60008181526001602052604081206103e690611321565b7f9f2df0fed2c77648de5860a4cc508cd0818c85b8b8a1ab4ceeef8d981c8956a681565b6108d6826104dc565b6108e281610564610b0a565b6105738383610ee2565b600181565b7f65d7a28e3265b37a6474929f336521b332c1681b933f6cb9f3376673440d862a81565b6001600160a01b03918216600090815260036020908152604080832093909416825291909152205460ff1690565b61094b610b0a565b6001600160a01b0316856001600160a01b03161480610971575061097185610354610b0a565b61098d5760405162461bcd60e51b81526004016103a790612561565b610548858585858561132c565b6109a2610b0a565b6001600160a01b0316836001600160a01b031614806109c857506109c883610354610b0a565b6109e45760405162461bcd60e51b81526004016103a790612561565b610573838383611464565b6109f98282610852565b6105ba576000828152602081815260408083206001600160a01b03851684529091529020805460ff19166001179055610a30610b0a565b6001600160a01b0316816001600160a01b0316837f2f8788117e7eff1d82e926ec794901d17c78024a50270940304540a733656f0d60405160405180910390a45050565b600061084b836001600160a01b038416611577565b610a97868686868686610abc565b610a9f610730565b15610abc5760405162461bcd60e51b81526004016103a790612515565b505050505050565b3b151590565b60006001600160e01b03198216636cdb3d1360e11b1480610afb57506001600160e01b031982166303a24d0760e21b145b806103e657506103e6826115c1565b3390565b6001600160a01b038416610b345760405162461bcd60e51b81526004016103a7906128e9565b8151835114610b555760405162461bcd60e51b81526004016103a7906128a1565b6000610b5f610b0a565b9050610b70816000878787876115e6565b60005b8451811015610c2857838181518110610b9c57634e487b7160e01b600052603260045260246000fd5b602002602001015160026000878481518110610bc857634e487b7160e01b600052603260045260246000fd5b602002602001015181526020019081526020016000206000886001600160a01b03166001600160a01b031681526020019081526020016000206000828254610c1091906129d5565b90915550819050610c2081612aa1565b915050610b73565b50846001600160a01b031660006001600160a01b0316826001600160a01b03167f4a39dc06d4c0dbc64b70af90fd698a233a518aa5d07e595d983b8c0526c8f7fb8787604051610c79929190612332565b60405180910390a4610548816000878787876115f4565b8151835114610cb15760405162461bcd60e51b81526004016103a7906128a1565b6001600160a01b038416610cd75760405162461bcd60e51b81526004016103a7906125d4565b6000610ce1610b0a565b9050610cf18187878787876115e6565b60005b8451811015610df6576000858281518110610d1f57634e487b7160e01b600052603260045260246000fd5b602002602001015190506000858381518110610d4b57634e487b7160e01b600052603260045260246000fd5b60209081029190910181015160008481526002835260408082206001600160a01b038e168352909352919091205490915081811015610d9c5760405162461bcd60e51b81526004016103a79061270b565b60008381526002602090815260408083206001600160a01b038e8116855292528083208585039055908b16825281208054849290610ddb9084906129d5565b9250508190555050505080610def90612aa1565b9050610cf4565b50846001600160a01b0316866001600160a01b0316826001600160a01b03167f4a39dc06d4c0dbc64b70af90fd698a233a518aa5d07e595d983b8c0526c8f7fb8787604051610e46929190612332565b60405180910390a4610abc8187878787876115f4565b610e668282610852565b6105ba57610e7e816001600160a01b03166014611702565b610e89836020611702565b604051602001610e9a9291906121f3565b60408051601f198184030181529082905262461bcd60e51b82526103a791600401612374565b610eca82826109ef565b60008281526001602052604090206105739082610a74565b610eec82826118b4565b60008281526001602052604090206105739082611937565b610f0c610730565b610f285760405162461bcd60e51b81526004016103a790612458565b6005805460ff191690557f5db9ee0a495bf2e6ff9c91a7834c1ba4fdd244a5e8aa4e537bd38aeae4b073aa610f5b610b0a565b604051610f689190612268565b60405180910390a1565b6001600160a01b038316610f985760405162461bcd60e51b81526004016103a79061266b565b8051825114610fb95760405162461bcd60e51b81526004016103a7906128a1565b6000610fc3610b0a565b9050610fe3818560008686604051806020016040528060008152506115e6565b60005b83518110156110c757600084828151811061101157634e487b7160e01b600052603260045260246000fd5b60200260200101519050600084838151811061103d57634e487b7160e01b600052603260045260246000fd5b60209081029190910181015160008481526002835260408082206001600160a01b038c16835290935291909120549091508181101561108e5760405162461bcd60e51b81526004016103a7906124d1565b60009283526002602090815260408085206001600160a01b038b16865290915290922091039055806110bf81612aa1565b915050610fe6565b5060006001600160a01b0316846001600160a01b0316826001600160a01b03167f4a39dc06d4c0dbc64b70af90fd698a233a518aa5d07e595d983b8c0526c8f7fb8686604051611118929190612332565b60405180910390a450505050565b6001600160a01b03841661114c5760405162461bcd60e51b81526004016103a7906128e9565b6000611156610b0a565b9050611177816000876111688861194c565b6111718861194c565b876115e6565b60008481526002602090815260408083206001600160a01b0389168452909152812080548592906111a99084906129d5565b92505081905550846001600160a01b031660006001600160a01b0316826001600160a01b03167fc3d58168c5ae7397731d063d5bbf3d657854427343f4c083240f7aacaa2d0f628787604051611200929190612979565b60405180910390a4610548816000878787876119a5565b61121f610730565b1561123c5760405162461bcd60e51b81526004016103a7906125aa565b6005805460ff191660011790557f62e78cea01bee320cd4e420270b5ea74000d11b0c9f74754ebdbfc544b05a258610f5b610b0a565b600061084b8383611a76565b816001600160a01b0316836001600160a01b031614156112b05760405162461bcd60e51b81526004016103a79061280f565b6001600160a01b0383811660008181526003602090815260408083209487168084529490915290819020805460ff1916851515179055517f17307eab39ab6107e8899845ad3d59bd9653f200f220920489ca2b5937696c3190611314908590612360565b60405180910390a3505050565b60006103e682611aae565b6001600160a01b0384166113525760405162461bcd60e51b81526004016103a7906125d4565b600061135c610b0a565b905061136d8187876111688861194c565b60008481526002602090815260408083206001600160a01b038a168452909152902054838110156113b05760405162461bcd60e51b81526004016103a79061270b565b60008581526002602090815260408083206001600160a01b038b81168552925280832087850390559088168252812080548692906113ef9084906129d5565b92505081905550856001600160a01b0316876001600160a01b0316836001600160a01b03167fc3d58168c5ae7397731d063d5bbf3d657854427343f4c083240f7aacaa2d0f628888604051611445929190612979565b60405180910390a461145b8288888888886119a5565b50505050505050565b6001600160a01b03831661148a5760405162461bcd60e51b81526004016103a79061266b565b6000611494610b0a565b90506114c4818560006114a68761194c565b6114af8761194c565b604051806020016040528060008152506115e6565b60008381526002602090815260408083206001600160a01b0388168452909152902054828110156115075760405162461bcd60e51b81526004016103a7906124d1565b60008481526002602090815260408083206001600160a01b03808a16808652919093528184208786039055905190918516907fc3d58168c5ae7397731d063d5bbf3d657854427343f4c083240f7aacaa2d0f62906115689089908990612979565b60405180910390a45050505050565b60006115838383611ab2565b6115b9575081546001818101845560008481526020808220909301849055845484825282860190935260409020919091556103d5565b5060006103d5565b60006001600160e01b03198216635a05180f60e01b14806103e657506103e682611aca565b610abc868686868686610a89565b611606846001600160a01b0316610ac4565b15610abc5760405163bc197c8160e01b81526001600160a01b0385169063bc197c819061163f908990899088908890889060040161227c565b602060405180830381600087803b15801561165957600080fd5b505af1925050508015611689575060408051601f3d908101601f1916820190925261168691810190612171565b60015b6116d257611695612aee565b806116a057506116ba565b8060405162461bcd60e51b81526004016103a79190612374565b60405162461bcd60e51b81526004016103a790612387565b6001600160e01b0319811663bc197c8160e01b1461145b5760405162461bcd60e51b81526004016103a790612410565b606060006117118360026129ed565b61171c9060026129d5565b67ffffffffffffffff81111561174257634e487b7160e01b600052604160045260246000fd5b6040519080825280601f01601f19166020018201604052801561176c576020820181803683370190505b509050600360fc1b8160008151811061179557634e487b7160e01b600052603260045260246000fd5b60200101906001600160f81b031916908160001a905350600f60fb1b816001815181106117d257634e487b7160e01b600052603260045260246000fd5b60200101906001600160f81b031916908160001a90535060006117f68460026129ed565b6118019060016129d5565b90505b6001811115611895576f181899199a1a9b1b9c1cb0b131b232b360811b85600f166010811061184357634e487b7160e01b600052603260045260246000fd5b1a60f81b82828151811061186757634e487b7160e01b600052603260045260246000fd5b60200101906001600160f81b031916908160001a90535060049490941c9361188e81612a4f565b9050611804565b50831561084b5760405162461bcd60e51b81526004016103a7906123db565b6118be8282610852565b156105ba576000828152602081815260408083206001600160a01b03851684529091529020805460ff191690556118f3610b0a565b6001600160a01b0316816001600160a01b0316837ff6391f5c32d9c69d2a47ea670b442974b53935d1edc7fd64eb21e047a839171b60405160405180910390a45050565b600061084b836001600160a01b038416611aef565b6040805160018082528183019092526060916000919060208083019080368337019050509050828160008151811061199457634e487b7160e01b600052603260045260246000fd5b602090810291909101015292915050565b6119b7846001600160a01b0316610ac4565b15610abc5760405163f23a6e6160e01b81526001600160a01b0385169063f23a6e61906119f090899089908890889088906004016122da565b602060405180830381600087803b158015611a0a57600080fd5b505af1925050508015611a3a575060408051601f3d908101601f19168201909252611a3791810190612171565b60015b611a4657611695612aee565b6001600160e01b0319811663f23a6e6160e01b1461145b5760405162461bcd60e51b81526004016103a790612410565b6000826000018281548110611a9b57634e487b7160e01b600052603260045260246000fd5b9060005260206000200154905092915050565b5490565b60009081526001919091016020526040902054151590565b60006001600160e01b03198216637965db0b60e01b14806103e657506103e682611c0c565b60008181526001830160205260408120548015611c02576000611b13600183612a0c565b8554909150600090611b2790600190612a0c565b9050818114611ba8576000866000018281548110611b5557634e487b7160e01b600052603260045260246000fd5b9060005260206000200154905080876000018481548110611b8657634e487b7160e01b600052603260045260246000fd5b6000918252602080832090910192909255918252600188019052604090208390555b8554869080611bc757634e487b7160e01b600052603160045260246000fd5b6001900381819060005260206000200160009055905585600101600086815260200190815260200160002060009055600193505050506103d5565b60009150506103d5565b6001600160e01b031981166301ffc9a760e01b14919050565b80356001600160a01b03811681146103e957600080fd5b600082601f830112611c4c578081fd5b81356020611c61611c5c836129b1565b612987565b8281528181019085830183850287018401881015611c7d578586fd5b855b85811015611c9b57813584529284019290840190600101611c7f565b5090979650505050505050565b600082601f830112611cb8578081fd5b813567ffffffffffffffff811115611cd257611cd2612ad2565b611ce5601f8201601f1916602001612987565b818152846020838601011115611cf9578283fd5b816020850160208301379081016020019190915292915050565b60008060408385031215611d25578182fd5b611d2e83611c25565b9150611d3c60208401611c25565b90509250929050565b600080600080600060a08688031215611d5c578081fd5b611d6586611c25565b9450611d7360208701611c25565b9350604086013567ffffffffffffffff80821115611d8f578283fd5b611d9b89838a01611c3c565b94506060880135915080821115611db0578283fd5b611dbc89838a01611c3c565b93506080880135915080821115611dd1578283fd5b50611dde88828901611ca8565b9150509295509295909350565b600080600080600060a08688031215611e02578081fd5b611e0b86611c25565b9450611e1960208701611c25565b93506040860135925060608601359150608086013567ffffffffffffffff811115611e42578182fd5b611dde88828901611ca8565b600080600060608486031215611e62578283fd5b611e6b84611c25565b9250602084013567ffffffffffffffff80821115611e87578384fd5b611e9387838801611c3c565b93506040860135915080821115611ea8578283fd5b50611eb586828701611c3c565b9150509250925092565b60008060008060808587031215611ed4578384fd5b611edd85611c25565b9350602085013567ffffffffffffffff80821115611ef9578485fd5b611f0588838901611c3c565b94506040870135915080821115611f1a578384fd5b611f2688838901611c3c565b93506060870135915080821115611f3b578283fd5b50611f4887828801611ca8565b91505092959194509250565b60008060408385031215611f66578182fd5b611f6f83611c25565b915060208301358015158114611f83578182fd5b809150509250929050565b60008060408385031215611fa0578182fd5b611fa983611c25565b946020939093013593505050565b600080600060608486031215611fcb578081fd5b611fd484611c25565b95602085013595506040909401359392505050565b60008060008060808587031215611ffe578182fd5b61200785611c25565b93506020850135925060408501359150606085013567ffffffffffffffff811115612030578182fd5b611f4887828801611ca8565b6000806040838503121561204e578182fd5b823567ffffffffffffffff80821115612065578384fd5b818501915085601f830112612078578384fd5b81356020612088611c5c836129b1565b82815281810190858301838502870184018b10156120a4578889fd5b8896505b848710156120cd576120b981611c25565b8352600196909601959183019183016120a8565b50965050860135925050808211156120e3578283fd5b506120f085828601611c3c565b9150509250929050565b60006020828403121561210b578081fd5b5035919050565b60008060408385031215612124578182fd5b82359150611d3c60208401611c25565b60008060408385031215612146578182fd5b50508035926020909101359150565b600060208284031215612166578081fd5b813561084b81612b93565b600060208284031215612182578081fd5b815161084b81612b93565b6000815180845260208085019450808401835b838110156121bc578151875295820195908201906001016121a0565b509495945050505050565b600081518084526121df816020860160208601612a23565b601f01601f19169290920160200192915050565b60007f416363657373436f6e74726f6c3a206163636f756e74200000000000000000008252835161222b816017850160208801612a23565b7001034b99036b4b9b9b4b733903937b6329607d1b601791840191820152835161225c816028840160208801612a23565b01602801949350505050565b6001600160a01b0391909116815260200190565b6001600160a01b0386811682528516602082015260a0604082018190526000906122a89083018661218d565b82810360608401526122ba818661218d565b905082810360808401526122ce81856121c7565b98975050505050505050565b6001600160a01b03868116825285166020820152604081018490526060810183905260a060808201819052600090612314908301846121c7565b979650505050505050565b60006020825261084b602083018461218d565b600060408252612345604083018561218d565b8281036020840152612357818561218d565b95945050505050565b901515815260200190565b90815260200190565b60006020825261084b60208301846121c7565b60208082526034908201527f455243313135353a207472616e7366657220746f206e6f6e20455243313135356040820152732932b1b2b4bb32b91034b6b83632b6b2b73a32b960611b606082015260800190565b6020808252818101527f537472696e67733a20686578206c656e67746820696e73756666696369656e74604082015260600190565b60208082526028908201527f455243313135353a204552433131353552656365697665722072656a656374656040820152676420746f6b656e7360c01b606082015260800190565b60208082526014908201527314185d5cd8589b194e881b9bdd081c185d5cd95960621b604082015260600190565b6020808252602b908201527f455243313135353a2062616c616e636520717565727920666f7220746865207a60408201526a65726f206164647265737360a81b606082015260800190565b60208082526024908201527f455243313135353a206275726e20616d6f756e7420657863656564732062616c604082015263616e636560e01b606082015260800190565b6020808252602c908201527f455243313135355061757361626c653a20746f6b656e207472616e736665722060408201526b1dda1a5b19481c185d5cd95960a21b606082015260800190565b60208082526029908201527f455243313135353a2063616c6c6572206973206e6f74206f776e6572206e6f7260408201526808185c1c1c9bdd995960ba1b606082015260800190565b60208082526010908201526f14185d5cd8589b194e881c185d5cd95960821b604082015260600190565b60208082526025908201527f455243313135353a207472616e7366657220746f20746865207a65726f206164604082015264647265737360d81b606082015260800190565b60208082526032908201527f455243313135353a207472616e736665722063616c6c6572206973206e6f74206040820152711bdddb995c881b9bdc88185c1c1c9bdd995960721b606082015260800190565b60208082526023908201527f455243313135353a206275726e2066726f6d20746865207a65726f206164647260408201526265737360e81b606082015260800190565b60208082526038908201527f455243313135355072657365744d696e7465725061757365723a206d7573742060408201527f68617665206d696e74657220726f6c6520746f206d696e740000000000000000606082015260800190565b6020808252602a908201527f455243313135353a20696e73756666696369656e742062616c616e636520666f60408201526939103a3930b739b332b960b11b606082015260800190565b6020808252603b908201527f455243313135355072657365744d696e7465725061757365723a206d7573742060408201527f686176652070617573657220726f6c6520746f20756e70617573650000000000606082015260800190565b60208082526039908201527f455243313135355072657365744d696e7465725061757365723a206d7573742060408201527f686176652070617573657220726f6c6520746f20706175736500000000000000606082015260800190565b60208082526029908201527f455243313135353a2073657474696e6720617070726f76616c20737461747573604082015268103337b91039b2b63360b91b606082015260800190565b60208082526029908201527f455243313135353a206163636f756e747320616e6420696473206c656e677468604082015268040dad2e6dac2e8c6d60bb1b606082015260800190565b60208082526028908201527f455243313135353a2069647320616e6420616d6f756e7473206c656e677468206040820152670dad2e6dac2e8c6d60c31b606082015260800190565b60208082526021908201527f455243313135353a206d696e7420746f20746865207a65726f206164647265736040820152607360f81b606082015260800190565b6020808252602f908201527f416363657373436f6e74726f6c3a2063616e206f6e6c792072656e6f756e636560408201526e103937b632b9903337b91039b2b63360891b606082015260800190565b918252602082015260400190565b60405181810167ffffffffffffffff811182821017156129a9576129a9612ad2565b604052919050565b600067ffffffffffffffff8211156129cb576129cb612ad2565b5060209081020190565b600082198211156129e8576129e8612abc565b500190565b6000816000190483118215151615612a0757612a07612abc565b500290565b600082821015612a1e57612a1e612abc565b500390565b60005b83811015612a3e578181015183820152602001612a26565b838111156104d65750506000910152565b600081612a5e57612a5e612abc565b506000190190565b600281046001821680612a7a57607f821691505b60208210811415612a9b57634e487b7160e01b600052602260045260246000fd5b50919050565b6000600019821415612ab557612ab5612abc565b5060010190565b634e487b7160e01b600052601160045260246000fd5b634e487b7160e01b600052604160045260246000fd5b60e01c90565b600060443d1015612afe57610737565b600481823e6308c379a0612b128251612ae8565b14612b1c57610737565b6040513d600319016004823e80513d67ffffffffffffffff8160248401118184111715612b4c5750505050610737565b82840192508251915080821115612b665750505050610737565b503d83016020828401011115612b7e57505050610737565b601f01601f1916810160200160405291505090565b6001600160e01b031981168114612ba957600080fd5b5056fea2646970667358221220316ea6732a0c49dcb802dcc82aaddfa4d648d4bfde37f016ee834baba4880da464736f6c6343000800003368747470733a2f2f676f6f676c652e636f6d2f646574616e676c65642f746f6b656e732f7b69647d2e6a736f6e",
    "sourcePath": "/home/ufedojo/dev/blockchain/dapps/detangled/contracts/Detangled.sol",
    "compiler": {
        "name": "solc",
        "version": "0.8.0+commit.c7dfd78e"
    },
    "functionHashes": {
        "BETA_TESTER()": "d9cf786c",
        "DEFAULT_ADMIN_ROLE()": "a217fddf",
        "MINTER_ROLE()": "d5391393",
        "PAUSER_ROLE()": "e63ab1e9",
        "balanceOf(address,uint256)": "00fdd58e",
        "balanceOfBatch(address[],uint256[])": "4e1273f4",
        "burn(address,uint256,uint256)": "f5298aca",
        "burnBatch(address,uint256[],uint256[])": "6b20c454",
        "getRoleAdmin(bytes32)": "248a9ca3",
        "getRoleMember(bytes32,uint256)": "9010d07c",
        "getRoleMemberCount(bytes32)": "ca15c873",
        "grantRole(bytes32,address)": "2f2ff15d",
        "hasRole(bytes32,address)": "91d14854",
        "isApprovedForAll(address,address)": "e985e9c5",
        "mint(address,uint256,uint256,bytes)": "731133e9",
        "mintBatch(address,uint256[],uint256[],bytes)": "1f7fdffa",
        "pause()": "8456cb59",
        "paused()": "5c975abb",
        "renounceRole(bytes32,address)": "36568abe",
        "revokeRole(bytes32,address)": "d547741f",
        "safeBatchTransferFrom(address,address,uint256[],uint256[],bytes)": "2eb2c2d6",
        "safeTransferFrom(address,address,uint256,uint256,bytes)": "f242432a",
        "setApprovalForAll(address,bool)": "a22cb465",
        "supportsInterface(bytes4)": "01ffc9a7",
        "unpause()": "3f4ba83a",
        "uri(uint256)": "0e89341c"
    },
    "gasEstimates": {
        "creation": {
            "codeDepositCost": "2246800",
            "executionCost": "infinite",
            "totalCost": "infinite"
        },
        "external": {
            "BETA_TESTER()": "317",
            "DEFAULT_ADMIN_ROLE()": "317",
            "MINTER_ROLE()": "273",
            "PAUSER_ROLE()": "272",
            "balanceOf(address,uint256)": "1435",
            "balanceOfBatch(address[],uint256[])": "infinite",
            "burn(address,uint256,uint256)": "infinite",
            "burnBatch(address,uint256[],uint256[])": "infinite",
            "getRoleAdmin(bytes32)": "1292",
            "getRoleMember(bytes32,uint256)": "infinite",
            "getRoleMemberCount(bytes32)": "infinite",
            "grantRole(bytes32,address)": "infinite",
            "hasRole(bytes32,address)": "1450",
            "isApprovedForAll(address,address)": "infinite",
            "mint(address,uint256,uint256,bytes)": "infinite",
            "mintBatch(address,uint256[],uint256[],bytes)": "infinite",
            "pause()": "infinite",
            "paused()": "1108",
            "renounceRole(bytes32,address)": "infinite",
            "revokeRole(bytes32,address)": "infinite",
            "safeBatchTransferFrom(address,address,uint256[],uint256[],bytes)": "infinite",
            "safeTransferFrom(address,address,uint256,uint256,bytes)": "infinite",
            "setApprovalForAll(address,bool)": "23460",
            "supportsInterface(bytes4)": "infinite",
            "unpause()": "infinite",
            "uri(uint256)": "infinite"
        }
    }
}